:100000000C942A000C943F000C943F000C943F0089
:100010000C943F000C943F000C943F000C943F0064
:100020000C943F000C943F000C943F000C943F0054
:100030000C943F000C943F000C943F000C943F0044
:100040000C943F000C943F000C943F000C943F0034
:100050000C943F0011241FBECFE5D8E0DEBFCDBF1A
:1000600011E0A0E6B0E0EAECF1E402C005900D92E8
:10007000A039B107D9F70E94810F0C94E3200C94AA
:100080000000EF92FF920F931F937B018C0120E001
:1000900030E040E05FE40E94ED0388238CF0C8016B
:1000A000B70120E030E040E05FE40E94B9010E9427
:1000B000AB049B01AC01205030404040504806C08A
:1000C000C801B7010E94AB049B01AC01B901CA0190
:1000D0001F910F91FF90EF900895A0E0B0E0E3E74B
:1000E000F0E00C94AC20DC012B01FA019C919230E1
:1000F00008F439C1EB018881823008F433C19430AF
:1001000069F4843009F02FC111969C91119789816F
:10011000981709F428C1A8E7B0E025C1843009F494
:1001200021C18230A9F4923009F01DC19A01AD01BC
:1001300088E0EA010990AE01E90109929E0181502F
:10014000C1F7E201898111969C918923818308C1BD
:10015000923009F407C112962D903C901397EB0151
:100160008A819B811496AD90BD90CD90DC901797BD
:10017000EC80FD800E811F819101281B390BB90194
:1001800037FF04C066277727621B730B6032710547
:100190000CF061C0121613066CF537014801062EEB
:1001A00004C096948794779467940A94D2F721E0D8
:1001B00030E040E050E004C0220F331F441F551FC1
:1001C0006A95D2F721503040404050402E213F21C7
:1001D00040235123211531054105510521F021E02E
:1001E00030E040E050E079018A01E628F72808294C
:1001F00019293CC0232BD1F1260E371E35014601AB
:10020000062E04C096948794779467940A94D2F744
:1002100021E030E040E050E004C0220F331F441FD3
:10022000551F6A95D2F721503040404050402A2156
:100230003B214C215D21211531054105510521F05E
:1002400021E030E040E050E059016A01A628B728DB
:10025000C828D9280BC0821593052CF01C01AA24AC
:10026000BB24650103C0EE24FF24870111969C91F5
:10027000D20111968C91981709F445C0992339F051
:10028000A80197012A193B094C095D0906C0A6017E
:1002900095012E193F09400B510B57FD08C01182E3
:1002A0003382228224833583468357831DC081E0B5
:1002B00081833382228288279927DC01821B930B5A
:1002C000A40BB50B84839583A683B7830DC0220F3F
:1002D000331F441F551F24833583468357838281F0
:1002E000938101979383828324813581468157814D
:1002F000DA01C9010197A109B1098F5F9F4FAF4F83
:10030000BF4328F30BC0918333822282EA0CFB1C8B
:100310000C1D1D1DE482F5820683178383E0808314
:10032000248135814681578157FF1AC0C901AA2708
:1003300097FDA095BA2F81709070A070B0705695FF
:10034000479537952795822B932BA42BB52B848328
:100350009583A683B7838281938101969383828359
:10036000DF0101C0D201CD01CDB7DEB7E2E10C94CF
:10037000C820A0E2B0E0EFEBF1E00C94B820698374
:100380007A838B839C832D833E834F835887E9E058
:10039000EE2EF12CEC0EFD1ECE010196B7010E944F
:1003A0009C068E010F5E1F4FCE010596B8010E947C
:1003B0009C068A8991E089278A8BC701B801AE0122
:1003C000475E5F4F0E946D000E94C705A096E6E061
:1003D0000C94D420A0E2B0E0E0EFF1E00C94B8205F
:1003E00069837A838B839C832D833E834F835887D5
:1003F000F9E0EF2EF12CEC0EFD1ECE010196B701B7
:100400000E949C068E010F5E1F4FCE010596B8011B
:100410000E949C06C701B801AE01475E5F4F0E9473
:100420006D000E94C705A096E6E00C94D420A0E2DF
:10043000B0E0EDE1F2E00C94AC2069837A838B8329
:100440009C832D833E834F835887CE010196BE0146
:10045000675F7F4F0E949C06CE010596BE016F5ECE
:100460007F4F0E949C069985923088F0898982305E
:10047000C8F0943019F4823051F404C0843029F467
:10048000923081F488E790E0C6C0923049F420E0D1
:100490009A858A89981321E02A87CE010996BBC0E4
:1004A000823049F420E09A858A89981321E02A8BCA
:1004B000CE014196B0C02D843E844F8458886D880B
:1004C0007E888F88988CEE24FF248701AA24BB2481
:1004D000650140E050E060E070E0E0E0F0E0C10184
:1004E00081709070892BE9F0E60CF71C081D191D2E
:1004F0009A01AB012A0D3B1D4C1D5D1D80E090E073
:10050000A0E0B0E0E614F7040805190520F481E046
:1005100090E0A0E0B0E0BA01A901480F591F6A1F9E
:100520007B1FAA0CBB1CCC1CDD1C97FE08C081E005
:1005300090E0A0E0B0E0A82AB92ACA2ADB2A3196C6
:10054000E032F10549F0660C771C881C991C569422
:10055000479437942794C3CFFA85EA892B893C893D
:100560008B859C85280F391F2E5F3F4F17C0CA010E
:1005700081709070892B61F016950795F794E79438
:1005800080E090E0A0E0B0E8E82AF92A0A2B1B2BD3
:1005900076956795579547952F5F3F4F77FDE7CF46
:1005A0000CC0440F551F661F771F17FD4160EE0CEE
:1005B000FF1C001F111F21503040403090E05907B0
:1005C00090E0690790E4790760F32B8F3C8FDB01A3
:1005D000CA018F779070A070B07080349105A1052A
:1005E000B10561F447FD0AC0E114F10401051105EC
:1005F00029F0405C5F4F6F4F7F4F40781A8EFE1797
:1006000011F081E08A8F4D8F5E8F6F8F78A383E02A
:10061000898FCE0149960E94C705A096E2E10C940D
:10062000C820A8E1B0E0E7E1F3E00C94B4206983CE
:100630007A838B839C832D833E834F835887B9E0D5
:10064000EB2EF12CEC0EFD1ECE010196B7010E949F
:100650009C068E010F5E1F4FCE010596B8010E94C9
:100660009C062985223008F47EC03989323010F486
:10067000B8017CC08A859A8989278A87243011F03D
:10068000223031F4231709F06EC068E770E06EC0C5
:10069000343039F41D861E861F86188A1C861B86F8
:1006A00004C0323021F484E08987B7015FC02B8514
:1006B0003C858B899C89281B390B3C872B87ED84D3
:1006C000FE840F851889AD88BE88CF88D88CEA143F
:1006D000FB040C051D0540F4EE0CFF1C001F111F50
:1006E000215030403C872B8720E030E040E050E054
:1006F00080E090E0A0E0B0E460E070E0EA14FB0489
:100700000C051D0540F0282B392B4A2B5B2BEA18D2
:10071000FB080C091D09B695A79597958795EE0CD2
:10072000FF1C001F111F6F5F7F4F6F31710531F785
:10073000DA01C9018F779070A070B0708034910594
:10074000A105B10561F427FD0AC0E114F10401051A
:10075000110529F0205C3F4F4F4F5F4F20782D87C8
:100760003E874F87588BBE01675F7F4FCB010E944A
:10077000C7056896EAE00C94D020A8E1B0E0E3EC6D
:10078000F3E00C94B82069837A838B839C832D8358
:100790003E834F83588789E0E82EF12CEC0EFD1E36
:1007A000CE010196B7010E949C068E010F5E1F4F7D
:1007B000CE010596B8010E949C068985823040F0E2
:1007C0008989823028F0C701B8010E94140701C04E
:1007D0008FEF6896E6E00C94D420A8E1B0E0E3EF58
:1007E000F3E00C94B82069837A838B839C832D83F8
:1007F0003E834F83588789E0E82EF12CEC0EFD1ED6
:10080000CE010196B7010E949C068E010F5E1F4F1C
:10081000CE010596B8010E949C068985823040F081
:100820008989823028F0C701B8010E94140701C0ED
:100830008FEF6896E6E00C94D420A8E1B0E0E3E204
:10084000F4E00C94B82069837A838B839C832D8396
:100850003E834F83588789E0E82EF12CEC0EFD1E75
:10086000CE010196B7010E949C068E010F5E1F4FBC
:10087000CE010596B8010E949C068985823040F021
:100880008989823028F0C701B8010E94140701C08D
:1008900081E06896E6E00C94D420A8E0B0E0E3E5BF
:1008A000F4E00C94B5209B01AC0183E08983DA016C
:1008B000C9018827B7FD83959927AA27BB27B82E9A
:1008C000211531054105510519F482E089833AC0AB
:1008D0008823A9F0203080E0380780E0480780E8CE
:1008E000580729F460E070E080E09FEC30C0EE240F
:1008F000FF248701E21AF30A040B150B02C07901E9
:100900008A018EE1C82ED12CDC82CB82ED82FE8260
:100910000F831887C801B7010E9478050197181640
:10092000190684F4082E04C0EE0CFF1C001F111FD2
:100930000A94D2F7ED82FE820F831887C81AD90A6B
:10094000DC82CB82BA82CE0101960E94C70528962E
:10095000E9E00C94D120ACE0B0E0E1EBF4E00C94E1
:10096000BC2069837A838B839C83CE010196BE0170
:100970006B5F7F4F0E949C068D81823061F18230D7
:1009800050F1843021F48E81882351F12EC02F81C3
:10099000388537FD20C06E812F3131051CF066236C
:1009A000F9F023C08EE190E0821B930B29853A85F4
:1009B0004B855C8504C056954795379527958A9554
:1009C000D2F76623B1F050954095309521953F4F71
:1009D0004F4F5F4F0EC020E030E040E050E009C0D4
:1009E0002FEF3FEF4FEF5FE704C020E030E040E043
:1009F00050E8B901CA012C96E2E00C94D820A8E096
:100A0000B0E0E5E0F5E00C94B4207B018C016115C9
:100A100071058105910519F482E0898360C083E046
:100A200089838EE1C82ED12CDC82CB82ED82FE82BE
:100A30000F831887C801B7010E947805FC01319720
:100A4000F7FF3BC0222733272E1B3F0B57016801BE
:100A5000022E04C0D694C794B794A7940A94D2F7F0
:100A600040E050E060E070E081E090E0A0E0B0E0C5
:100A700004C0880F991FAA1FBB1F2A95D2F70197A0
:100A8000A109B1098E219F21A023B1230097A105BF
:100A9000B10521F041E050E060E070E04A295B29B7
:100AA0006C297D294D835E836F8378878EE190E08A
:100AB0008E1B9F0B9C838B8312C0309781F00E2E70
:100AC00004C0EE0CFF1C001F111F0A94D2F7ED8228
:100AD000FE820F831887CE1ADF0ADC82CB821A824D
:100AE000CE0101960E94C7052896EAE00C94D0201A
:100AF000EF92FF920F931F937B018C0180E0E81629
:100B000080E0F80681E0080780E0180788F48FEF9E
:100B1000E816F1040105110531F028F088E090E0B5
:100B2000A0E0B0E017C080E090E0A0E0B0E012C02C
:100B300080E0E81680E0F80680E0080781E018070A
:100B400028F088E190E0A0E0B0E004C080E190E00F
:100B5000A0E0B0E020E230E040E050E0281B390B9C
:100B60004A0B5B0B04C016950795F794E7948A959A
:100B7000D2F7F701E058FF4F8081281B3109410966
:100B80005109C9011F910F91FF90EF900895DF92D5
:100B9000EF92FF920F931F93FC01E480F580068192
:100BA0001781D1808081823048F480E090E0A0E11C
:100BB000B0E0E82AF92A0A2B1B2BA5C0843009F4DF
:100BC0009FC0823021F4EE24FF24870105C0E11488
:100BD000F1040105110519F4E0E0F0E096C062812E
:100BE00073819FEF623879070CF05BC022E83FEF1A
:100BF000261B370B2A3131052CF020E030E040E095
:100C000050E02AC0B801A701022E04C0769567956E
:100C1000579547950A94D2F781E090E0A0E0B0E0C4
:100C200004C0880F991FAA1FBB1F2A95D2F70197EE
:100C3000A109B1098E219F21A023B1230097A1050D
:100C4000B10521F081E090E0A0E0B0E09A01AB01B5
:100C5000282B392B4A2B5B2BDA01C9018F77907037
:100C6000A070B07080349105A105B10539F427FF5B
:100C700009C0205C3F4F4F4F5F4F04C0215C3F4F86
:100C80004F4F5F4FE0E0F0E02030A0E03A07A0E0F7
:100C90004A07A0E45A0710F0E1E0F0E079018A0188
:100CA00027C06038710564F5FB01E158FF4FD8019A
:100CB000C7018F779070A070B07080349105A10546
:100CC000B10539F4E7FE0DC080E490E0A0E0B0E0AB
:100CD00004C08FE390E0A0E0B0E0E80EF91E0A1F28
:100CE0001B1F17FF05C016950795F794E7943196DB
:100CF00087E016950795F794E7948A95D1F705C094
:100D0000EE24FF248701EFEFF0E06E2F6795662752
:100D10006795902F9F77D794DD24D7948E2F869553
:100D2000492F462B582F5D29B701CA011F910F91FA
:100D3000FF90EF90DF900895FC01DB01408151812D
:100D40002281622F6F7770E0221F2227221F93815A
:100D5000892F880F822B282F30E0991F9927991F00
:100D600011969C93119721153105A9F5411551054F
:100D70006105710511F482E037C082E89FEF139698
:100D80009C938E9312979A01AB0167E0220F331F59
:100D9000441F551F6A95D1F783E08C930DC0220F35
:100DA000331F441F551F12968D919C9113970197E5
:100DB00013969C938E931297203080E0380780E042
:100DC000480780E4580758F314962D933D934D93AC
:100DD0005C93179708952F3F310579F4411551051C
:100DE0006105710519F484E08C93089564FF03C0D4
:100DF00081E08C9312C01C9210C02F573040139684
:100E00003C932E93129783E08C9387E0440F551FF9
:100E1000661F771F8A95D1F7706414964D935D9382
:100E20006D937C93179708951F93DC01FB019C91B0
:100E3000923008F447C08081823008F443C0943077
:100E400051F411961C91843099F58181682F70E0DE
:100E5000611B71093FC0843021F0923031F482303F
:100E6000B9F18181882389F12DC011961C911197C8
:100E70008230F1F081811817D9F412962D913C91AE
:100E80001397828193818217930794F0281739076B
:100E9000BCF014968D919D910D90BC91A02D248154
:100EA000358146815781281739074A075B0718F4AF
:100EB000112341F00AC082179307A407B50740F435
:100EC000112319F061E070E005C06FEF7FEF02C001
:100ED00060E070E0CB011F910895DF93CF93CDB711
:100EE000DEB72F970FB6F894DEBF0FBECDBF8F874A
:100EF00082E060E040E00E94120D82E061E040E0AC
:100F00000E94120D81E06F850E94D00C82E062E0A9
:100F100041E00E94120D80E090E0A0E8BFE38B87E3
:100F20009C87AD87BE876B857C858D859E8520E0FF
:100F300030E04AEF54E40E941702DC01CB018F83BA
:100F40009887A987BA876F81788589859A8520E0F7
:100F500030E040E85FE30E941D0488232CF481E028
:100F600090E09E838D833FC06F81788589859A85C7
:100F700020E03FEF4FE757E40E94BD0318164CF501
:100F80006B857C858D859E8520E030E040E251E4D4
:100F90000E941702DC01CB01BC01CD010E9441007F
:100FA000DC01CB019E838D830FC088EC90E09C8395
:100FB0008B838B819C810197F1F79C838B838D813F
:100FC0009E8101979E838D838D819E81009769F715
:100FD00014C06F81788589859A850E944100DC0163
:100FE000CB019E838D838D819E819A8389838981A4
:100FF0009A810197F1F79A83898382E062E040E069
:101000000E94120D2F960FB6F894DEBF0FBECDBF13
:10101000CF91DF910895DF93CF93CDB7DEB72F97B0
:101020000FB6F894DEBF0FBECDBF8F8782E060E0C1
:1010300041E00E94120D82E061E040E00E94120D4A
:1010400081E06F850E94D00C82E062E041E00E9466
:10105000120D80E090E0A0E8BFE38B879C87AD870E
:10106000BE876B857C858D859E8520E030E04AEFCC
:1010700054E40E941702DC01CB018F839887A98773
:10108000BA876F81788589859A8520E030E040E8CD
:101090005FE30E941D0488232CF481E090E09E838E
:1010A0008D833FC06F81788589859A8520E03FEFE9
:1010B0004FE757E40E94BD0318164CF56B857C85FD
:1010C0008D859E8520E030E040E251E40E941702C9
:1010D000DC01CB01BC01CD010E944100DC01CB0150
:1010E0009E838D830FC088EC90E09C838B838B81E3
:1010F0009C810197F1F79C838B838D819E81019761
:101100009E838D838D819E81009769F714C06F81C6
:10111000788589859A850E944100DC01CB019E83F8
:101120008D838D819E819A83898389819A8101979C
:10113000F1F79A83898382E062E040E00E94120D19
:101140002F960FB6F894DEBF0FBECDBFCF91DF91C3
:101150000895DF93CF93CDB7DEB7E8970FB6F89435
:10116000DEBF0FBECDBF80E090E0A0E2B2E48DAB69
:101170009EABAFABB8AF6DA97EA98FA998AD20E0AB
:1011800030E04AEF54E40E941702DC01CB0189AB46
:101190009AABABABBCAB69A97AA98BA99CA920E09F
:1011A00030E040E85FE30E941D0488232CF481E0D6
:1011B00090E098AB8FA73FC069A97AA98BA99CA999
:1011C00020E03FEF4FE757E40E94BD0318164CF5AF
:1011D0006DA97EA98FA998AD20E030E040E251E4EE
:1011E0000E941702DC01CB01BC01CD010E9441002D
:1011F000DC01CB0198AB8FA70FC088EC90E09EA7D5
:101200008DA78DA59EA50197F1F79EA78DA78FA508
:1012100098A9019798AB8FA78FA598A9009769F710
:1012200014C069A97AA98BA99CA90E944100DC017C
:10123000CB0198AB8FA78FA598A99CA78BA78BA54F
:101240009CA50197F1F79CA78BA788E30E946D07E7
:1012500080E090E0A0E8BFE38FA398A7A9A7BAA772
:101260006FA178A589A59AA520E030E04AEF54E463
:101270000E941702DC01CB018BA39CA3ADA3BEA3EC
:101280006BA17CA18DA19EA120E030E040E85FE34E
:101290000E941D0488232CF481E090E09AA389A386
:1012A0003FC06BA17CA18DA19EA120E03FEF4FE745
:1012B00057E40E94BD0318164CF56FA178A589A5C7
:1012C0009AA520E030E040E251E40E941702DC01E0
:1012D000CB01BC01CD010E944100DC01CB019AA3EE
:1012E00089A30FC088EC90E098A38F8F8F8D98A171
:1012F0000197F1F798A38F8F89A19AA101979AA3DB
:1013000089A389A19AA1009769F714C06BA17CA158
:101310008DA19EA10E944100DC01CB019AA389A36B
:1013200089A19AA19E8F8D8F8D8D9E8D0197F1F74A
:101330009E8F8D8F8CE00E946D0780E090E0A0E88A
:10134000BFE3898F9A8FAB8FBC8F698D7A8D8B8D20
:101350009C8D20E030E04AEF54E40E941702DC014B
:10136000CB018D8B9E8BAF8BB88F6D897E898F89DA
:10137000988D20E030E040E85FE30E941D04882360
:101380002CF481E090E09C8B8B8B3FC06D897E8933
:101390008F89988D20E03FEF4FE757E40E94BD030F
:1013A00018164CF5698D7A8D8B8D9C8D20E030E080
:1013B00040E251E40E941702DC01CB01BC01CD01E7
:1013C0000E944100DC01CB019C8B8B8B0FC088EC11
:1013D00090E09A8B898B89899A890197F1F79A8B8A
:1013E000898B8B899C8901979C8B8B8B8B899C89A2
:1013F000009769F714C06D897E898F89988D0E9446
:101400004100DC01CB019C8B8B8B8B899C89988B59
:101410008F878F8598890197F1F7988B8F8781E067
:101420000E946D0780E090E0A0E0B0E48B879C878D
:10143000AD87BE876B857C858D859E8520E030E0FD
:101440004AEF54E40E941702DC01CB018F83988796
:10145000A987BA876F81788589859A8520E030E0F1
:1014600040E85FE30E941D0488232CF481E090E0B3
:101470009E838D833FC06F81788589859A8520E022
:101480003FEF4FE757E40E94BD0318164CF56B85FC
:101490007C858D859E8520E030E040E251E40E940D
:1014A0001702DC01CB01BC01CD010E944100DC012F
:1014B000CB019E838D830FC088EC90E09C838B834F
:1014C0008B819C810197F1F79C838B838D819E8119
:1014D00001979E838D838D819E81009769F714C04B
:1014E0006F81788589859A850E944100DC01CB0156
:1014F0009E838D838D819E819A83898389819A8140
:101500000197F1F79A838983E8960FB6F894DEBFC6
:101510000FBECDBFCF91DF910895DF93CF9300D061
:101520000F92CDB7DEB79B838A8319820EC0898163
:10153000282F30E08A819B81FC01E20FF31F80811C
:101540000E940B0889818F5F89838981282F30E071
:101550008A819B81FC01E20FF31F8081882339F788
:101560000F900F900F90CF91DF9108950F931F93DD
:10157000DF93CF93CDB7DEB760970FB6F894DEBF99
:101580000FBECDBF6D877E878F87988B1A82198299
:101590008D859E85AF85B8890097A105B10591F528
:1015A00080E30E940B084DC08A81082F10E08D85D2
:1015B0009E85AF85B8892AE030E040E050E0BC016C
:1015C000CD010E948A20DC01CB01282F205DCE01B5
:1015D0000396FC01E00FF11F20838D859E85AF856A
:1015E000B8892AE030E040E050E0BC01CD010E9423
:1015F0008A20DA01C9018D879E87AF87B88B8A81DF
:101600008F5F8A838D859E85AF85B8890097A105F8
:10161000B10551F68A81898311C08981882F90E0B4
:101620009C0121503040CE010396FC01E20FF31FD4
:1016300080810E940B088981815089838981882358
:1016400061F760960FB6F894DEBF0FBECDBFCF91A5
:10165000DF911F910F910895DF93CF9300D00F92E8
:10166000CDB7DEB78A836B8319828A81882319F408
:101670008B81898306C08A81813019F48B81805CDB
:101680008983898180580E946D070F900F900F9079
:10169000CF91DF910895DF93CF93CDB7DEB7279732
:1016A0000FB6F894DEBF0FBECDBF9C838B836D83D6
:1016B0004E832F831A828D81882F90E0880F991F87
:1016C000880F991F880F991F89838981805C0E94E8
:1016D0006D070EC08A81282F30E08B819C81FC0130
:1016E000E20FF31F80810E940B088A818F5F8A833B
:1016F0008A81883078F38E816F810E942C0B279627
:101700000FB6F894DEBF0FBECDBFCF91DF91089525
:10171000DF93CF9300D000D0CDB7DEB789836A8343
:101720008981282F30E03C832B838B819C81823000
:101730009105D9F02B813C812330310534F48B8124
:101740009C818130910561F01EC02B813C8123304A
:10175000310581F08B819C818430910581F013C02B
:10176000EAE3F0E08A8180830EC0E7E3F0E08A815B
:10177000808309C0E4E3F0E08A81808304C0E1E370
:10178000F0E08A8180830F900F900F900F90CF919F
:10179000DF910895DF93CF93CDB7DEB727970FB6CC
:1017A000F894DEBF0FBECDBF89836A834B838A81E5
:1017B000883008F0ECC08B81813009F070C08981DD
:1017C000282F30E03F832E838E819F8182309105C8
:1017D00051F12E813F812330310534F48E819F8178
:1017E0008130910561F0D3C02E813F8123303105D6
:1017F00071F18E819F8184309105E9F1C8C0AAE31F
:10180000B0E0EAE3F0E08081482F8A81282F30E0C1
:1018100081E090E0022E02C0880F991F0A94E2F73F
:10182000842B8C93B4C0A7E3B0E0E7E3F0E08081C1
:10183000482F8A81282F30E081E090E0022E02C0FC
:10184000880F991F0A94E2F7842B8C93A0C0A4E31D
:10185000B0E0E4E3F0E08081482F8A81282F30E077
:1018600081E090E0022E02C0880F991F0A94E2F7EF
:10187000842B8C938CC0A1E3B0E0E1E3F0E08081A5
:10188000482F8A81282F30E081E090E0022E02C0AC
:10189000880F991F0A94E2F7842B8C9378C08B8170
:1018A000882309F074C08981282F30E03D832C8380
:1018B0008C819D818230910561F12C813D812330A5
:1018C000310534F48C819D818130910569F05FC0D0
:1018D0002C813D812330310589F18C819D818430BB
:1018E000910509F440C053C0AAE3B0E0EAE3F0E098
:1018F0008081482F8A81282F30E081E090E0022EFD
:1019000002C0880F991F0A94E2F7809584238C9374
:101910003EC0A7E3B0E0E7E3F0E08081482F8A8192
:10192000282F30E081E090E0022E02C0880F991F3E
:101930000A94E2F7809584238C9329C0A4E3B0E055
:10194000E4E3F0E08081482F8A81282F30E081E0B5
:1019500090E0022E02C0880F991F0A94E2F780954A
:1019600084238C9314C0A1E3B0E0E1E3F0E0808134
:10197000482F8A81282F30E081E090E0022E02C0BB
:10198000880F991F0A94E2F7809584238C932796F9
:101990000FB6F894DEBF0FBECDBFCF91DF91089593
:1019A000DF93CF9300D000D0CDB7DEB789836A83B1
:1019B0008981282F30E03C832B838B819C8182306E
:1019C0009105D9F02B813C812330310534F48B8192
:1019D0009C818130910561F01EC02B813C812330B8
:1019E000310581F08B819C818430910581F013C099
:1019F000EBE3F0E08A8180830EC0E8E3F0E08A81C7
:101A0000808309C0E5E3F0E08A81808304C0E2E3DB
:101A1000F0E08A8180830F900F900F900F90CF910C
:101A2000DF910895DF93CF93CDB7DEB727970FB639
:101A3000F894DEBF0FBECDBF89836A834B838A8152
:101A4000883008F0ECC08B81813009F070C089814A
:101A5000282F30E03F832E838E819F818230910535
:101A600051F12E813F812330310534F48E819F81E5
:101A70008130910561F0D3C02E813F812330310543
:101A800071F18E819F8184309105E9F1C8C0ABE38B
:101A9000B0E0EBE3F0E08081482F8A81282F30E02E
:101AA00081E090E0022E02C0880F991F0A94E2F7AD
:101AB000842B8C93B4C0A8E3B0E0E8E3F0E080812D
:101AC000482F8A81282F30E081E090E0022E02C06A
:101AD000880F991F0A94E2F7842B8C93A0C0A5E38A
:101AE000B0E0E5E3F0E08081482F8A81282F30E0E4
:101AF00081E090E0022E02C0880F991F0A94E2F75D
:101B0000842B8C938CC0A2E3B0E0E2E3F0E0808110
:101B1000482F8A81282F30E081E090E0022E02C019
:101B2000880F991F0A94E2F7842B8C9378C08B81DD
:101B3000882309F074C08981282F30E03D832C83ED
:101B40008C819D818230910561F12C813D81233012
:101B5000310534F48C819D818130910569F05FC03D
:101B60002C813D812330310589F18C819D81843028
:101B7000910509F440C053C0ABE3B0E0EBE3F0E003
:101B80008081482F8A81282F30E081E090E0022E6A
:101B900002C0880F991F0A94E2F7809584238C93E2
:101BA0003EC0A8E3B0E0E8E3F0E08081482F8A81FE
:101BB000282F30E081E090E0022E02C0880F991FAC
:101BC0000A94E2F7809584238C9329C0A5E3B0E0C2
:101BD000E5E3F0E08081482F8A81282F30E081E022
:101BE00090E0022E02C0880F991F0A94E2F78095B8
:101BF00084238C9314C0A2E3B0E0E2E3F0E08081A0
:101C0000482F8A81282F30E081E090E0022E02C028
:101C1000880F991F0A94E2F7809584238C93279666
:101C20000FB6F894DEBF0FBECDBFCF91DF91089500
:101C3000DF93CF9300D000D00F92CDB7DEB78A8369
:101C40006B8319828B81883008F067C08A81282FC6
:101C500030E03D832C834C815D814230510541F160
:101C60008C819D818330910534F42C813D8121301C
:101C7000310561F052C04C815D814330510551F115
:101C80008C819D8184309105B9F147C0E9E3F0E092
:101C90008081282F30E08B81882F90E0A90102C03D
:101CA000559547958A95E2F7CA018170898335C0B9
:101CB000E6E3F0E08081282F30E08B81882F90E0F0
:101CC000A90102C0559547958A95E2F7CA0181702E
:101CD000898323C0E3E3F0E08081282F30E08B810B
:101CE000882F90E0A90102C0559547958A95E2F7A3
:101CF000CA018170898311C0E0E3F0E08081282F60
:101D000030E08B81882F90E0A90102C0559547955E
:101D10008A95E2F7CA018170898389810F900F90BB
:101D20000F900F900F90CF91DF910895DF93CF9395
:101D3000CDB7DEB7A7970FB6F894DEBF0FBECDBF05
:101D4000CE0143969CA38BA3E0E8F1E0FEA3EDA3B4
:101D5000F0E1FFA3EDA1FEA100808DA19EA101965F
:101D60009EA38DA3EBA1FCA100828BA19CA1019657
:101D70009CA38BA39FA191509FA3EFA1EE2351F7AA
:101D80001A8AB1C083E06A8940E00E94120D198A64
:101D90009EC08989982F9C5F83E0692F0E94180E4E
:101DA000888B8889882309F08FC08989282F30E0A3
:101DB0008A89482F50E0220F331F220F331FCE0194
:101DC0000196820F931F840F951FFC0172968081EC
:101DD0008F8780E090E0A0E2B1E48B879C87AD879D
:101DE000BE876B857C858D859E8520E030E04AEF3F
:101DF00054E40E941702DC01CB018F839887A987E6
:101E0000BA876F81788589859A8520E030E040E83F
:101E10005FE30E941D0488232CF481E090E09E8300
:101E20008D833FC06F81788589859A8520E03FEF5B
:101E30004FE757E40E94BD0318164CF56B857C856F
:101E40008D859E8520E030E040E251E40E9417023B
:101E5000DC01CB01BC01CD010E944100DC01CB01C2
:101E60009E838D830FC088EC90E09C838B838B8155
:101E70009C810197F1F79C838B838D819E810197D3
:101E80009E838D838D819E81009769F714C06F8139
:101E9000788589859A850E944100DC01CB019E836B
:101EA0008D838D819E819A83898389819A8101970F
:101EB000F1F79A8389838989982F9C5F83E0692F42
:101EC0000E94180E8823B9F389898F5F898B8989CD
:101ED000843008F45ECF83E06A8941E00E94120DED
:101EE0008A898F5F8A8B8A89843008F44BCF8F85EB
:101EF000A7960FB6F894DEBF0FBECDBFCF91DF918E
:101F00000895CF92DF92EF92FF920F931F93DF938A
:101F1000CF93CDB7DEB7C852D1400FB6F894DEBF2D
:101F20000FBECDBF81E06FEF0E94880B82E06FEFA4
:101F30000E94880B83E06FE00E94880B83E06FEFC4
:101F40000E94D00C0E94A908FE01E95EFE4F10829B
:101F5000FE01EA5EFE4F1082FE01EB5EFE4F108234
:101F6000FE01EC5EFE4F10820E94960EFE01E55FC0
:101F7000FE4F8083FE01E55FFE4F8081843099F043
:101F8000FE01E55FFE4F8081883069F0FE01E55F6C
:101F9000FE4F80818C3039F0FE01E55FFE4F80817D
:101FA000803109F05CC3FE01EC5EFE4F10821FC061
:101FB000FE01EC5EFE4F8081282F30E0CE01875E6F
:101FC0009E4FFC01E20FF31F9081DE01A95EBE4F20
:101FD000FE01E95EFE4F8081890F8C93DE01AC5ECD
:101FE000BE4FFE01EC5EFE4F80818F5F8C93FE0141
:101FF000EC5EFE4FDE01AB5EBE4F90818C91981778
:10200000B8F2FE01EB5EFE4F1082DE01A85EBE4F0D
:10201000FE01E55FFE4F80818C93FE01E55FFE4F80
:102020008081282F30E0C95DDE4F39832883C75275
:10203000D140C95DDE4F48815981C752D1404830F7
:10204000510509F4E1C0C95DDE4F88819981C7520D
:10205000D1408930910554F4C95DDE4FE881F981A2
:10206000C752D140E430F105B1F07ECFC95DDE4FFB
:1020700028813981C752D1402C30310509F47DC106
:10208000C95DDE4F48815981C752D1404031510569
:1020900009F42CC269CF80E690E00E948D0AFE010F
:1020A000E95FFE4F80E090E0A0E8BFE3808391838A
:1020B000A283B3838E010D5F1E4FFE01E95FFE4FC9
:1020C000608171818281938120E030E04AEF54E4A5
:1020D0000E941702DC01CB01F80180839183A28367
:1020E000B383FE01ED5FFE4F608171818281938138
:1020F00020E030E040E85FE30E941D04882344F4C0
:10210000FE01EF5FFE4F81E090E09183808364C029
:10211000FE01ED5FFE4F608171818281938120E03D
:102120003FEF4FE757E40E94BD0318160CF043C081
:10213000FE01E95FFE4F608171818281938120E021
:1021400030E040E251E40E941702DC01CB018E0135
:102150000F5F1E4FBC01CD010E944100DC01CB018D
:10216000F801918380831FC0FE01E150FF4F88EC8E
:1021700090E091838083FE01E150FF4F8081918147
:102180000197F1F7FE01E150FF4F91838083DE015B
:10219000AF5FBE4FFE01EF5FFE4F808191810197DF
:1021A00011969C938E93FE01EF5FFE4F808191818B
:1021B0000097D1F6D9CE8E010F5F1E4FFE01ED5F65
:1021C000FE4F60817181828193810E944100DC0118
:1021D000CB01F80191838083DE01A350BF4FFE0144
:1021E000EF5FFE4F8081918111969C938E93FE014B
:1021F000E350FF4F808191810197F1F7FE01E35099
:10220000FF4F91838083B0CE84E690E00E948D0AD8
:10221000FE01E750FF4F80E090E0A0E8BFE380833D
:102220009183A283B3838E010B501F4FFE01E750B1
:10223000FF4F608171818281938120E030E04AEF1D
:1022400054E40E941702DC01CB01F80180839183E2
:10225000A283B383FE01EB50FF4F608171818281C5
:10226000938120E030E040E85FE30E941D04882372
:1022700044F4FE01ED50FF4F81E090E091838083B4
:1022800064C0FE01EB50FF4F6081718182819381B8
:1022900020E03FEF4FE757E40E94BD0318160CF013
:1022A00043C0FE01E750FF4F6081718182819381BD
:1022B00020E030E040E251E40E941702DC01CB0153
:1022C0008E010D501F4FBC01CD010E944100DC0169
:1022D000CB01F801918380831FC0FE01EF50FF4FB7
:1022E00088EC90E091838083FE01EF50FF4F808166
:1022F00091810197F1F7FE01EF50FF4F91838083A9
:10230000DE01AD50BF4FFE01ED50FF4F8081918146
:10231000019711969C938E93FE01ED50FF4F8081A3
:1023200091810097D1F620CE8E010D501F4FFE01F6
:10233000EB50FF4F60817181828193810E94410047
:10234000DC01CB01F80191838083DE01A151BF4FF5
:10235000FE01ED50FF4F8081918111969C938E93E9
:10236000FE01E151FF4F808191810197F1F7FE015C
:10237000E151FF4F91838083F7CD88E690E00E9482
:102380008D0AFE01E551FF4F80E090E0A0E8BFE339
:1023900080839183A283B3838E0109511F4FFE0175
:1023A000E551FF4F608171818281938120E030E0AF
:1023B0004AEF54E40E941702DC01CB01F80180834C
:1023C0009183A283B383FE01E951FF4F6081718144
:1023D0008281938120E030E040E85FE30E941D04A9
:1023E000882344F4FE01EB51FF4F81E090E091839C
:1023F000808364C0FE01E951FF4F60817181828159
:10240000938120E03FEF4FE757E40E94BD03181689
:102410000CF043C0FE01E551FF4F60817181828164
:10242000938120E030E040E251E40E941702DC0199
:10243000CB018E010B511F4FBC01CD010E94410009
:10244000DC01CB01F801918380831FC0FE01ED51B7
:10245000FF4F88EC90E091838083FE01ED51FF4FA8
:10246000808191810197F1F7FE01ED51FF4F91833A
:102470008083DE01AB51BF4FFE01EB51FF4F8081E6
:102480009181019711969C938E93FE01EB51FF4F22
:10249000808191810097D1F667CD8E010B511F4F3E
:1024A000FE01E951FF4F60817181828193810E9419
:1024B0004100DC01CB01F80191838083DE01AF5143
:1024C000BF4FFE01EB51FF4F8081918111969C938C
:1024D0008E93FE01EF51FF4F808191810197F1F7BB
:1024E000FE01EF51FF4F918380833ECD8CE690E05B
:1024F0000E948D0AFE01E352FF4F80E090E0A0E8C9
:10250000BFE380839183A283B3838E0107521F4F61
:10251000FE01E352FF4F608171818281938120E04F
:1025200030E04AEF54E40E941702DC01CB01F801CD
:1025300080839183A283B383FE01E752FF4F6081C2
:1025400071818281938120E030E040E85FE30E9466
:102550001D04882344F4FE01E952FF4F81E090E01E
:102560009183808364C0FE01E752FF4F60817181D7
:102570008281938120E03FEF4FE757E40E94BD0343
:1025800018160CF043C0FE01E352FF4F60817181C9
:102590008281938120E030E040E251E40E94170202
:1025A000DC01CB018E0109521F4FBC01CD010E94FD
:1025B0004100DC01CB01F801918380831FC0FE0143
:1025C000EB52FF4F88EC90E091838083FE01EB5249
:1025D000FF4F808191810197F1F7FE01EB52FF4F90
:1025E00091838083DE01A952BF4FFE01E952FF4F64
:1025F00080819181019711969C938E93FE01E952FF
:10260000FF4F808191810097D1F6AECC8E010952A7
:102610001F4FFE01E752FF4F6081718182819381DC
:102620000E944100DC01CB01F80191838083DE012F
:10263000AD52BF4FFE01E952FF4F8081918111964B
:102640009C938E93FE01ED52FF4F80819181019703
:10265000F1F7FE01ED52FF4F9183808385CCFE019F
:10266000E55FFE4F80818D3009F50E94A908FE01CB
:10267000E95EFE4F1082FE01EA5EFE4F1082FE010F
:10268000E05FFE4F80E090E0A0E0B0E080839183C7
:10269000A283B383FE01E45FFE4F80E090E0A0E000
:1026A000B0E080839183A283B3835ECCFE01E55FBB
:1026B000FE4F80818F3009F075C580E790E00E9461
:1026C0008D0AFE01EC5EFE4F10821FC0FE01EC5E23
:1026D000FE4F8081282F30E0CE01875E9E4FFC01A7
:1026E000E20FF31F9081DE01AA5EBE4FFE01EA5E9B
:1026F000FE4F8081890F8C93DE01AC5EBE4FFE01E0
:10270000EC5EFE4F80818F5F8C93FE01EC5EFE4F8E
:10271000DE01AB5EBE4F90818C919817B8F2FE013E
:10272000EB5EFE4F1082FE01E85EFE4F8081282F97
:1027300030E0CB5DDE4F39832883C552D140CB5D7D
:10274000DE4F48815981C552D1404830510509F4C6
:1027500062C1CB5DDE4F88819981C552D1408930FD
:10276000910554F4CB5DDE4FE881F981C552D1402B
:10277000E430F105B1F0F6C4CB5DDE4F288139813C
:10278000C552D1402C30310509F42FC2CB5DDE4F4C
:1027900048815981C552D1404031510509F400C4E6
:1027A000E1C4FE01E95EFE4F8081882F90E0A0E049
:1027B000B0E0BC01CD010E94FF047B018C01FE0151
:1027C000EA5EFE4F8081882F90E0AA2797FDA095B2
:1027D000BA2FBC01CD010E944D049B01AC010F2E0C
:1027E000F0E1CF2EF1E0DF2EF02DCC0EDD1EC80182
:1027F000B7010E941103DC01CB01F60180839183B4
:10280000A283B383FE01E05FFE4F6081718182810C
:1028100093810E94AB04DC01CB01AA2797FDA09510
:10282000BA2FBC01CD010E944D049B01AC01FE01F9
:10283000E05FFE4F60817181828193810E94B901C6
:10284000DC01CB018E01045F1E4FBC01CD0120E0F5
:1028500030E048EC52E40E941702DC01CB01F801A1
:1028600080839183A283B383FE01E05FFE4F60818A
:102870007181828193810E944100DC01CB01BC0106
:10288000CD010E94B60A84E790E00E948D0AFE0105
:10289000E45FFE4F60817181828193810E944100DB
:1028A000DC01CB01BC01CD010E94B60AFE01E1535F
:1028B000FF4F80E090E0A0E8BFE380839183A28394
:1028C000B3838E0105531F4FFE01E153FF4F60811B
:1028D00071818281938120E030E04AEF54E40E94CC
:1028E0001702DC01CB01F80180839183A283B383BB
:1028F000FE01E553FF4F608171818281938120E069
:1029000030E040E85FE30E941D04882344F4FE01A8
:10291000E753FF4F81E090E09183808364C0FE0124
:10292000E553FF4F608171818281938120E03FEF09
:102930004FE757E40E94BD0318160CF043C0FE0198
:10294000E153FF4F608171818281938120E030E00B
:1029500040E251E40E941702DC01CB018E010753D3
:102960001F4FBC01CD010E944100DC01CB01F801E9
:10297000918380831FC0FE01E953FF4F88EC90E0F4
:1029800091838083FE01E953FF4F808191810197FC
:10299000F1F7FE01E953FF4F91838083DE01A753D6
:1029A000BF4FFE01E753FF4F808191810197119640
:1029B0009C938E93FE01E753FF4F80819181009796
:1029C000D1F6D0C38E0107531F4FFE01E553FF4FD1
:1029D00060817181828193810E944100DC01CB0181
:1029E000F80191838083DE01AB53BF4FFE01E753B3
:1029F000FF4F8081918111969C938E93FE01EB5342
:102A0000FF4F808191810197F1F7FE01EB53FF4F5A
:102A100091838083A7C3FE01E95EFE4F8081282F4A
:102A200030E0FE01EA5EFE4F8081882F90E0AC012D
:102A3000249FC001259F900D349F900D11248E017D
:102A4000005F1E4FAA2797FDA095BA2FBC01CD01AC
:102A50000E944D04DC01CB01F80180839183A283A5
:102A6000B383FE01E05FFE4F6081718182819381BB
:102A70000E944100DC01CB01BC01CD010E94B60ADD
:102A8000FE01EF53FF4F80E090E0A0E8BFE38083BA
:102A90009183A283B3838E0103541F4FFE01EF5332
:102AA000FF4F608171818281938120E030E04AEFA5
:102AB00054E40E941702DC01CB01F801808391836A
:102AC000A283B383FE01E354FF4F60817181828151
:102AD000938120E030E040E85FE30E941D048823FA
:102AE00044F4FE01E554FF4F81E090E09183808340
:102AF00064C0FE01E354FF4F608171818281938144
:102B000020E03FEF4FE757E40E94BD0318160CF09A
:102B100043C0FE01EF53FF4F608171818281938139
:102B200020E030E040E251E40E941702DC01CB01DA
:102B30008E0105541F4FBC01CD010E944100DC01F4
:102B4000CB01F801918380831FC0FE01E754FF4F42
:102B500088EC90E091838083FE01E754FF4F8081F1
:102B600091810197F1F7FE01E754FF4F9183808334
:102B7000DE01A554BF4FFE01E554FF4F80819181D6
:102B8000019711969C938E93FE01E554FF4F80812F
:102B900091810097D1F6E6C28E0105541F4FFE01C8
:102BA000E354FF4F60817181828193810E944100D3
:102BB000DC01CB01F80191838083DE01A954BF4F72
:102BC000FE01E554FF4F8081918111969C938E9375
:102BD000FE01E954FF4F808191810197F1F7FE01D9
:102BE000E954FF4F91838083BDC2FE01E95EFE4F31
:102BF000DE01AA5EBE4F90818C91891708F0E6C075
:102C0000FE01E95EFE4F8081282F30E0FE01EA5E82
:102C1000FE4F8081882F90E0A901481B590BCA0103
:102C20008E01005F1E4FAA2797FDA095BA2FBC0109
:102C3000CD010E944D04DC01CB01F801808391831A
:102C4000A283B383FE01E05FFE4F608171818281C8
:102C500093810E944100DC01CB01BC01CD010E94A7
:102C6000B60AFE01ED54FF4F80E090E0A0E8BFE31C
:102C700080839183A283B3838E0101551F4FFE0190
:102C8000ED54FF4F608171818281938120E030E0BB
:102C90004AEF54E40E941702DC01CB01F801808363
:102CA0009183A283B383FE01E155FF4F608171815F
:102CB0008281938120E030E040E85FE30E941D04C0
:102CC000882344F4FE01E355FF4F81E090E09183B7
:102CD000808364C0FE01E155FF4F60817181828174
:102CE000938120E03FEF4FE757E40E94BD031816A1
:102CF0000CF043C0FE01ED54FF4F60817181828171
:102D0000938120E030E040E251E40E941702DC01B0
:102D1000CB018E0103551F4FBC01CD010E94410024
:102D2000DC01CB01F801918380831FC0FE01E555D2
:102D3000FF4F88EC90E091838083FE01E555FF4FC3
:102D4000808191810197F1F7FE01E555FF4F918355
:102D50008083DE01A355BF4FFE01E355FF4F808105
:102D60009181019711969C938E93FE01E355FF4F3D
:102D7000808191810097D1F6F5C18E0103551F4FD7
:102D8000FE01E155FF4F60817181828193810E9434
:102D90004100DC01CB01F80191838083DE01A7555E
:102DA000BF4FFE01E355FF4F8081918111969C93A7
:102DB0008E93FE01E755FF4F808191810197F1F7D6
:102DC000FE01E755FF4F91838083CCC1FE01EA5E8F
:102DD000FE4F8081282F30E0FE01E95EFE4F8081AA
:102DE000882F90E0A901481B590BCA018E01005F92
:102DF0001E4FAA2797FDA095BA2FBC01CD010E94B6
:102E00004D04DC01CB01F80180839183A283B3835D
:102E100086E790E00E948D0AFE01E05FFE4F608130
:102E20007181828193810E944100DC01CB01BC0150
:102E3000CD010E94B60AFE01EB55FF4F80E090E005
:102E4000A0E8BFE380839183A283B3838E010F55F3
:102E50001F4FFE01EB55FF4F60817181828193818D
:102E600020E030E04AEF54E40E941702DC01CB017D
:102E7000F80180839183A283B383FE01EF55FF4F56
:102E8000608171818281938120E030E040E85FE3DE
:102E90000E941D04882344F4FE01E156FF4F81E0A7
:102EA00090E09183808364C0FE01EF55FF4F608105
:102EB00071818281938120E03FEF4FE757E40E94C8
:102EC000BD0318160CF043C0FE01EB55FF4F6081A7
:102ED00071818281938120E030E040E251E40E94E0
:102EE0001702DC01CB018E0101561F4FBC01CD0141
:102EF0000E944100DC01CB01F801918380831FC057
:102F0000FE01E356FF4F88EC90E091838083FE0141
:102F1000E356FF4F808191810197F1F7FE01E3565F
:102F2000FF4F91838083DE01A156BF4FFE01E15622
:102F3000FF4F80819181019711969C938E93FE01A2
:102F4000E156FF4F808191810097D1F60BC18E0130
:102F500001561F4FFE01EF55FF4F60817181828145
:102F600093810E944100DC01CB01F80191838083B1
:102F7000DE01A556BF4FFE01E156FF4F80819181D2
:102F800011969C938E93FE01E556FF4F80819181AF
:102F90000197F1F7FE01E556FF4F91838083E2C070
:102FA000FE01E95EFE4F8081282F30E0FE01EA5EDF
:102FB000FE4F8081882F90E0820F931F8E01005F6B
:102FC0001E4FAA2797FDA095BA2FBC01CD010E94E4
:102FD0004D04DC01CB01F80180839183A283B3838C
:102FE000FE01E05FFE4F60817181828193810E94CA
:102FF0004100DC01CB01BC01CD010E94B60AFE01FB
:10300000E956FF4F80E090E0A0E8BFE38083918322
:10301000A283B3838E010D561F4FFE01E956FF4F69
:10302000608171818281938120E030E04AEF54E435
:103030000E941702DC01CB01F80180839183A283F7
:10304000B383FE01ED56FF4F6081718182819381D0
:1030500020E030E040E85FE30E941D04882344F450
:10306000FE01EF56FF4F81E090E09183808364C0C2
:10307000FE01ED56FF4F608171818281938120E0D6
:103080003FEF4FE757E40E94BD0318160CF043C012
:10309000FE01E956FF4F608171818281938120E0BA
:1030A00030E040E251E40E941702DC01CB018E01C6
:1030B0000F561F4FBC01CD010E944100DC01CB0126
:1030C000F801918380831FC0FE01E157FF4F88EC18
:1030D00090E091838083FE01E157FF4F80819181D1
:1030E0000197F1F7FE01E157FF4F91838083DE01E5
:1030F000AF56BF4FFE01EF56FF4F80819181019780
:1031000011969C938E93FE01EF56FF4F8081918123
:103110000097D1F627C08E010F561F4FFE01ED56C6
:10312000FF4F60817181828193810E944100DC01A7
:10313000CB01F80191838083DE01A357BF4FFE01CD
:10314000EF56FF4F808191818D939C93FE01E35751
:10315000FF4F808191810197F1F7FE01E357FF4F07
:1031600091838083FE01E05FFE4F80E090E0A0E06D
:10317000B0E080839183A283B383FE01E45FFE4FBE
:1031800080E090E0A0E0B0E080839183A283B383ED
:10319000FE01E95EFE4F1082FE01EA5EFE4F1082E4
:1031A0000C94B40FFE01E55FFE4F80818130C1F1C8
:1031B000FE01E55FFE4F8081823091F1FE01E55F07
:1031C000FE4F8081833061F1FE01E55FFE4F80811B
:1031D000853031F1FE01E55FFE4F8081863001F1DF
:1031E000FE01E55FFE4F80818730D1F0FE01E55F93
:1031F000FE4F80818930A1F0FE01E55FFE4F8081A6
:103200008A3071F0FE01E55FFE4F80818B3041F026
:10321000FE01E55FFE4F80818E3011F00C94B40FFB
:10322000FE01E55FFE4F8081282F30E0CD5DDE4F4F
:1032300039832883C352D140CD5DDE4F4881598107
:10324000C352D1404630510509F49DC3CD5DDE4FD8
:1032500088819981C352D140873091059CF5CD5D1D
:10326000DE4FE881F981C352D140E230F10509F423
:103270002FC1CD5DDE4F28813981C352D14023302B
:1032800031055CF4CD5DDE4F48815981C352D14098
:103290004130510509F453C0F3C6CD5DDE4F88813E
:1032A0009981C352D1408330910509F4DAC1CD5DD3
:1032B000DE4FE881F981C352D140E530F10509F4D0
:1032C00099C2DEC6CD5DDE4F28813981C352D1401F
:1032D0002A30310509F441C5CD5DDE4F4881598161
:1032E000C352D1404B305105ACF4CD5DDE4F8881E7
:1032F0009981C352D1408730910509F40DC4CD5D49
:10330000DE4FE881F981C352D140E930F10509F47B
:103310009DC4B6C6CD5DDE4F28813981C352D140F0
:103320002B30310509F4A0C5CD5DDE4F48815981B0
:10333000C352D1404E30510509F41DC6A1C6FE014D
:10334000EB5EFE4F8081282F30E0CE01875E9E4FDE
:10335000FC01E20FF31F87E0808367E070E080E00C
:1033600090E00E94B60AFE01E757FF4F80E090E030
:10337000A0E8BFE380839183A283B3838E010B57C0
:103380001F4FFE01E757FF4F60817181828193815A
:1033900020E030E04AEF54E40E941702DC01CB0148
:1033A000F80180839183A283B383FE01EB57FF4F23
:1033B000608171818281938120E030E040E85FE3A9
:1033C0000E941D04882344F4FE01ED57FF4F81E065
:1033D00090E09183808364C0FE01EB57FF4F6081D2
:1033E00071818281938120E03FEF4FE757E40E9493
:1033F000BD0318160CF043C0FE01E757FF4F608174
:1034000071818281938120E030E040E251E40E94AA
:103410001702DC01CB018E010D571F4FBC01CD01FE
:103420000E944100DC01CB01F801918380831FC021
:10343000FE01EF57FF4F88EC90E091838083FE01FF
:10344000EF57FF4F808191810197F1F7FE01EF5710
:10345000FF4F91838083DE01AD57BF4FFE01ED57D3
:10346000FF4F80819181019711969C938E93FE016D
:10347000ED57FF4F808191810097D1F601C68E01F3
:103480000D571F4FFE01EB57FF4F60817181828105
:1034900093810E944100DC01CB01F801918380837C
:1034A000DE01A158BF4FFE01ED57FF4F8081918192
:1034B00011969C938E93FE01E158FF4F808191817C
:1034C0000197F1F7FE01E158FF4F91838083D8C542
:1034D000FE01EB5EFE4F8081282F30E0CE01875E3B
:1034E0009E4FFC01E20FF31F88E0808368E070E0EC
:1034F00080E090E00E94B60AFE01E558FF4F80E0B0
:1035000090E0A0E8BFE380839183A283B3838E0120
:1035100009581F4FFE01E558FF4F6081718182817C
:10352000938120E030E04AEF54E40E941702DC016E
:10353000CB01F80180839183A283B383FE01E95814
:10354000FF4F608171818281938120E030E040E80B
:103550005FE30E941D04882344F4FE01EB58FF4FF3
:1035600081E090E09183808364C0FE01E958FF4FC1
:10357000608171818281938120E03FEF4FE757E4C2
:103580000E94BD0318160CF043C0FE01E558FF4F22
:10359000608171818281938120E030E040E251E4DA
:1035A0000E941702DC01CB018E010B581F4FBC019A
:1035B000CD010E944100DC01CB01F80191838083A1
:1035C0001FC0FE01ED58FF4F88EC90E0918380838F
:1035D000FE01ED58FF4F808191810197F1F7FE01C7
:1035E000ED58FF4F91838083DE01AB58BF4FFE0142
:1035F000EB58FF4F80819181019711969C938E9398
:10360000FE01EB58FF4F808191810097D1F638C5BC
:103610008E010B581F4FFE01E958FF4F60817181E9
:10362000828193810E944100DC01CB01F8019183EA
:103630008083DE01AF58BF4FFE01EB58FF4F808102
:10364000918111969C938E93FE01EF58FF4F8081DC
:1036500091810197F1F7FE01EF58FF4F918380832D
:103660000FC5FE01EB5EFE4F8081282F30E0CE01BA
:10367000875E9E4FFC01E20FF31F89E0808369E0C3
:1036800070E080E090E00E94B60AFE01E359FF4F2F
:1036900080E090E0A0E8BFE380839183A283B383BE
:1036A0008E0107591F4FFE01E359FF4F6081718161
:1036B0008281938120E030E04AEF54E40E941702B7
:1036C000DC01CB01F80180839183A283B383FE01E7
:1036D000E759FF4F608171818281938120E030E062
:1036E00040E85FE30E941D04882344F4FE01E95989
:1036F000FF4F81E090E09183808364C0FE01E75931
:10370000FF4F608171818281938120E03FEF4FE71D
:1037100057E40E94BD0318160CF043C0FE01E359A4
:10372000FF4F608171818281938120E030E040E22F
:1037300051E40E941702DC01CB018E0109591F4F91
:10374000BC01CD010E944100DC01CB01F801918355
:1037500080831FC0FE01EB59FF4F88EC90E09183FE
:103760008083FE01EB59FF4F808191810197F1F732
:10377000FE01EB59FF4F91838083DE01A959BF4FB2
:10378000FE01E959FF4F80819181019711969C9329
:103790008E93FE01E959FF4F808191810097D1F608
:1037A0006FC48E0109591F4FFE01E759FF4F608119
:1037B0007181828193810E944100DC01CB01F8017B
:1037C00091838083DE01AD59BF4FFE01E959FF4F60
:1037D0008081918111969C938E93FE01ED59FF4F4C
:1037E000808191810197F1F7FE01ED59FF4F91839F
:1037F000808346C4FE01EB5EFE4F8081282F30E0BF
:10380000CE01875E9E4FFC01E20FF31F84E08083B0
:1038100064E070E080E090E00E94B60AFE01E15AA8
:10382000FF4F80E090E0A0E8BFE380839183A28314
:10383000B3838E01055A1F4FFE01E15AFF4F60818D
:1038400071818281938120E030E04AEF54E40E944C
:103850001702DC01CB01F80180839183A283B3833B
:10386000FE01E55AFF4F608171818281938120E0E2
:1038700030E040E85FE30E941D04882344F4FE0129
:10388000E75AFF4F81E090E09183808364C0FE019E
:10389000E55AFF4F608171818281938120E03FEF83
:1038A0004FE757E40E94BD0318160CF043C0FE0119
:1038B000E15AFF4F608171818281938120E030E085
:1038C00040E251E40E941702DC01CB018E01075A4D
:1038D0001F4FBC01CD010E944100DC01CB01F8016A
:1038E000918380831FC0FE01E95AFF4F88EC90E06E
:1038F00091838083FE01E95AFF4F80819181019776
:10390000F1F7FE01E95AFF4F91838083DE01A75A48
:10391000BF4FFE01E75AFF4F8081918101971196B9
:103920009C938E93FE01E75AFF4F8081918100970F
:10393000D1F6A6C38E01075A1F4FFE01E55AFF4F6D
:1039400060817181828193810E944100DC01CB0101
:10395000F80191838083DE01AB5ABF4FFE01E75A25
:10396000FF4F8081918111969C938E93FE01EB5ABB
:10397000FF4F808191810197F1F7FE01EB5AFF4FD4
:10398000918380837DC3FE01EB5EFE4F8081282FF3
:1039900030E0CE01875E9E4FFC01E20FF31F85E011
:1039A000808365E070E080E090E00E94B60AFE014E
:1039B000EF5AFF4F80E090E0A0E8BFE3808391835F
:1039C000A283B3838E01035B1F4FFE01EF5AFF4FAB
:1039D000608171818281938120E030E04AEF54E47C
:1039E0000E941702DC01CB01F80180839183A2833E
:1039F000B383FE01E35BFF4F60817181828193811C
:103A000020E030E040E85FE30E941D04882344F496
:103A1000FE01E55BFF4F81E090E09183808364C00D
:103A2000FE01E35BFF4F608171818281938120E021
:103A30003FEF4FE757E40E94BD0318160CF043C058
:103A4000FE01EF5AFF4F608171818281938120E0F6
:103A500030E040E251E40E941702DC01CB018E010C
:103A6000055B1F4FBC01CD010E944100DC01CB0171
:103A7000F801918380831FC0FE01E75BFF4F88EC54
:103A800090E091838083FE01E75BFF4F808191810D
:103A90000197F1F7FE01E75BFF4F91838083DE0121
:103AA000A55BBF4FFE01E55BFF4F808191810197D0
:103AB00011969C938E93FE01E55BFF4F808191816F
:103AC0000097D1F6DDC28E01055B1F4FFE01E35B5F
:103AD000FF4F60817181828193810E944100DC01EE
:103AE000CB01F80191838083DE01A95BBF4FFE010A
:103AF000E55BFF4F8081918111969C938E93FE012F
:103B0000E95BFF4F808191810197F1F7FE01E95B4D
:103B1000FF4F91838083B4C2FE01EB5EFE4F808134
:103B2000282F30E0CE01875E9E4FFC01E20FF31F8D
:103B300086E0808366E070E080E090E00E94B60A54
:103B4000FE01ED5BFF4F80E090E0A0E8BFE38083E3
:103B50009183A283B3838E01015C1F4FFE01ED5B55
:103B6000FF4F608171818281938120E030E04AEFD4
:103B700054E40E941702DC01CB01F8018083918399
:103B8000A283B383FE01FF9660817181828193815C
:103B900020E030E040E85FE30E941D0488232CF41D
:103BA00081E090E09EAF8DAF46C0FE01FF96608140
:103BB00071818281938120E03FEF4FE757E40E94BB
:103BC000BD03181664F5FE01ED5BFF4F6081718146
:103BD0008281938120E030E040E251E40E941702AC
:103BE000DC01CB01BC01CD010E944100DC01CB0115
:103BF0009EAF8DAF0FC088EC90E09CAF8BAF8BADCC
:103C00009CAD0197F1F79CAF8BAF8DAD9EAD019749
:103C10009EAF8DAF8DAD9EAD009769F731C2FE01AD
:103C2000FF9660817181828193810E944100DC0155
:103C3000CB019EAF8DAF8DAD9EAD9AAF89AF89ADF3
:103C40009AAD0197F1F79AAF89AF1AC2FE01EB5E08
:103C5000FE4F8081282F30E0CE01875E9E4FFC0111
:103C6000E20FF31F81E0808361E070E080E090E08C
:103C70000E94B60A80E090E0A0E8BFE38DAB9EAB67
:103C8000AFABB8AF6DA97EA98FA998AD20E030E0A9
:103C90004AEF54E40E941702DC01CB0189AB9AABD6
:103CA000ABABBCAB69A97AA98BA99CA920E030E099
:103CB00040E85FE30E941D0488232CF481E090E03B
:103CC00098AB8FA73FC069A97AA98BA99CA920E0CE
:103CD0003FEF4FE757E40E94BD0318164CF56DA95E
:103CE0007EA98FA998AD20E030E040E251E40E9427
:103CF0001702DC01CB01BC01CD010E944100DC01B7
:103D0000CB0198AB8FA70FC088EC90E09EA78DA742
:103D10008DA59EA50197F1F79EA78DA78FA598A9C0
:103D2000019798AB8FA78FA598A9009769F7A8C1AD
:103D300069A97AA98BA99CA90E944100DC01CB0149
:103D400098AB8FA78FA598A99CA78BA78BA59CA59F
:103D50000197F1F79CA78BA793C1FE01EB5EFE4F85
:103D60008081282F30E0CE01875E9E4FFC01E20F5C
:103D7000F31F82E0808362E070E080E090E00E94C8
:103D8000B60A80E090E0A0E8BFE38FA398A7A9A7B8
:103D9000BAA76FA178A589A59AA520E030E04AEFDF
:103DA00054E40E941702DC01CB018BA39CA3ADA3BA
:103DB000BEA36BA17CA18DA19EA120E030E040E8D4
:103DC0005FE30E941D0488232CF481E090E09AA315
:103DD00089A33FC06BA17CA18DA19EA120E03FEFF4
:103DE0004FE757E40E94BD0318164CF56FA178A564
:103DF00089A59AA520E030E040E251E40E94170234
:103E0000DC01CB01BC01CD010E944100DC01CB01F2
:103E10009AA389A30FC088EC90E098A38F8F8F8D11
:103E200098A10197F1F798A38F8F89A19AA1019783
:103E30009AA389A389A19AA1009769F721C16BA1CF
:103E40007CA18DA19EA10E944100DC01CB019AA31F
:103E500089A389A19AA19E8F8D8F8D8D9E8D0197AB
:103E6000F1F79E8F8D8F0CC1FE01EB5EFE4F8081BE
:103E7000282F30E0CE01875E9E4FFC01E20FF31F3A
:103E800083E0808363E070E080E090E00E94B60A07
:103E900080E090E0A0E8BFE3898F9A8FAB8FBC8F62
:103EA000698D7A8D8B8D9C8D20E030E04AEF54E453
:103EB0000E941702DC01CB018D8B9E8BAF8BB88FDC
:103EC0006D897E898F89988D20E030E040E85FE33E
:103ED0000E941D0488232CF481E090E09C8B8B8B46
:103EE0003FC06D897E898F89988D20E03FEF4FE735
:103EF00057E40E94BD0318164CF5698D7A8D8B8DA1
:103F00009C8D20E030E040E251E40E941702DC0189
:103F1000CB01BC01CD010E944100DC01CB019C8B97
:103F20008B8B0FC088EC90E09A8B898B89899A895A
:103F30000197F1F79A8B898B8B899C8901979C8BD0
:103F40008B8B8B899C89009769F79AC06D897E89D4
:103F50008F89988D0E944100DC01CB019C8B8B8B5B
:103F60008B899C89988B8F878F8598890197F1F72A
:103F7000988B8F8785C0FE01EB5EFE4F8081282FD6
:103F800030E0CE01875E9E4FFC01E20FF31F1082EE
:103F900060E070E080E090E00E94B60A80E090E08F
:103FA000A0E8BFE38B879C87AD87BE876B857C8548
:103FB0008D859E8520E030E04AEF54E40E94170290
:103FC000DC01CB018F839887A987BA876F817885B9
:103FD00089859A8520E030E040E85FE30E941D0477
:103FE00088232CF481E090E09E838D833FC06F8115
:103FF000788589859A8520E03FEF4FE757E40E9456
:10400000BD0318164CF56B857C858D859E8520E05B
:1040100030E040E251E40E941702DC01CB01BC0118
:10402000CD010E944100DC01CB019E838D830FC036
:1040300088EC90E09C838B838B819C810197F1F7C6
:104040009C838B838D819E8101979E838D838D813F
:104050009E81009769F714C06F81788589859A855C
:104060000E944100DC01CB019E838D838D819E8166
:104070009A83898389819A810197F1F79A83898349
:10408000FE01EC5EFE4F108230C0FE01EC5EFE4F82
:104090008081482F50E0FE01EC5EFE4F8081282F8A
:1040A00030E0CE01875E9E4FFC01E20FF31F80815E
:1040B000882F90E09C01220F331FC901880F991FA0
:1040C000880F991F820F931F282FCE01875E9E4F66
:1040D000FC01E40FF51F2083DE01AC5EBE4FFE0144
:1040E000EC5EFE4F80818F5F8C93FE01EC5EFE4F95
:1040F000DE01AB5EBE4F90818C91981730F2DE01ED
:10410000AB5EBE4FFE01EB5EFE4F80818F5F8C93F6
:104110000C94B40FA1E21A2EAA1BBB1BFD010DC00B
:10412000AA1FBB1FEE1FFF1FA217B307E407F50767
:1041300020F0A21BB30BE40BF50B661F771F881F43
:10414000991F1A9469F760957095809590959B01D9
:10415000AC01BD01CF0108952F923F924F925F9223
:104160006F927F928F929F92AF92BF92CF92DF9287
:10417000EF92FF920F931F93CF93DF93CDB7DEB7EC
:10418000CA1BDB0B0FB6F894DEBF0FBECDBF099480
:104190002A88398848885F846E847D848C849B84D7
:1041A000AA84B984C884DF80EE80FD800C811B81E5
:1041B000AA81B981CE0FD11D0FB6F894DEBF0FBE14
:0A41C000CDBFED010895F894FFCF84
:1041CA00202F2000202A2000202D2000202B200034
:1041DA00203D20002E002D000000000000000000FD
:1041EA000001020203030303040404040404040494
:1041FA000505050505050505050505050505050565
:10420A000606060606060606060606060606060644
:10421A000606060606060606060606060606060634
:10422A000707070707070707070707070707070714
:10423A000707070707070707070707070707070704
:10424A0007070707070707070707070707070707F4
:10425A0007070707070707070707070707070707E4
:10426A0008080808080808080808080808080808C4
:10427A0008080808080808080808080808080808B4
:10428A0008080808080808080808080808080808A4
:10429A000808080808080808080808080808080894
:1042AA000808080808080808080808080808080884
:1042BA000808080808080808080808080808080874
:1042CA000808080808080808080808080808080864
:1042DA000808080808080808080808080808080854
:1042EA000102030405060708090A0B0C0D0E0F103C
:00000001FF
